:0400000007EF00F016
:0A0008007D82B4ED0EF01AEF14F043
:10100000003738392F3435362A3132332D23303DED
:101010002B4C4544204F46460D004C4544204F4E36
:101020000D0025690000000E3C6E000E3D6E000EA6
:101030003E6E000E3F6E3CEF0AF0AC98AC94B89652
:1010400038C0D9FF39C0DAFFDECF01F0DECF02F0C1
:10105000DECF03F0DECF04F0000EB3EC0FF001C0E2
:1010600013F002C014F003C015F004C016F0000E17
:101070000F6E240E106EF40E116E4A0E126EE7EC17
:101080000CF00FC040F010C041F011C042F012C08F
:1010900043F0000E136E000E146E800E156E420E9D
:1010A000166E40C00FF041C010F042C011F043C0B6
:1010B00012F0E7EC0CF00FC028F010C029F011C0BE
:1010C0002AF012C02BF0000E2C6E000E2D6E800E3A
:1010D0002E6EBF0E2F6E87EC0AF028C03CF029C0A0
:1010E0003DF02AC03EF02BC03FF067EF0AF0AC980D
:1010F000AC84B89638C0D9FF39C0DAFFDECF01F032
:10110000DECF02F0DECF03F0DECF04F0000EB3EC52
:101110000FF001C013F002C014F003C015F004C0BA
:1011200016F0000E0F6E240E106EF40E116E4A0EA5
:10113000126EE7EC0CF00FC040F010C041F011C08F
:1011400042F012C043F0000E136E000E146E800EBB
:10115000156E410E166E40C00FF041C010F042C037
:1011600011F043C012F0E7EC0CF00FC028F010C0F3
:1011700029F011C02AF012C02BF0000E2C6E000EC8
:101180002D6E800E2E6EBF0E2F6E87EC0AF028C0DB
:101190003CF029C03DF02AC03EF02BC03FF067EF85
:1011A0000AF0AC98AC94B88638C0D9FF39C0DAFFE1
:1011B000DECF01F0DECF02F0DECF03F0DECF04F0B1
:1011C000000EB3EC0FF001C013F002C014F003C026
:1011D00015F004C016F0000E0F6E240E106EF40E03
:1011E000116E4A0E126EE7EC0CF00FC040F010C00A
:1011F00041F011C042F012C043F0000E136E000E19
:10120000146E800E156E410E166E40C00FF041C078
:1012100010F042C011F043C012F0E7EC0CF00FC028
:1012200028F010C029F011C02AF012C02BF0000ED7
:101230002C6E000E2D6E800E2E6EBF0E2F6E87EC64
:101240000AF028C03CF029C03DF02AC03EF02BC077
:101250003FF067EF0AF0AC98AC84B88638C0D9FF8D
:1012600039C0DAFFDECF01F0DECF02F0DECF03F0CF
:10127000DECF04F0000EB3EC0FF001C013F002C09B
:1012800014F003C015F004C016F0000E0F6E240E0B
:10129000106EF40E116E4A0E126EE7EC0CF00FC0D9
:1012A00040F010C041F011C042F012C043F0000EF7
:1012B000136E000E146E800E156E400E166E40C03A
:1012C0000FF041C010F042C011F043C012F0E7EC43
:1012D0000CF00FC028F010C029F011C02AF012C085
:1012E0002BF0000E2C6E000E2D6E800E2E6EBF0E9B
:1012F0002F6E87EC0AF028C03CF029C03DF02AC0D0
:101300003EF02BC03FF067EF0AF0AC88B89638C0CB
:10131000D9FF39C0DAFFDECF01F0DECF02F0DECF39
:1013200003F0DECF04F0000EB3EC0FF001C013F0B9
:1013300002C014F003C015F004C016F0000E0F6ECA
:10134000240E106EF40E116E4A0E126EE7EC0CF0C5
:101350000FC040F010C041F011C042F012C043F085
:10136000000E136E000E146E800E156E400E166E7B
:1013700040C00FF041C010F042C011F043C012F065
:10138000E7EC0CF00FC028F010C029F011C02AF0D3
:1013900012C02BF0000E2C6E000E2D6E800E2E6EE5
:1013A000BF0E2F6E87EC0AF028C03CF029C03DF03C
:1013B0002AC03EF02BC03FF067EF0AF0AC88B88639
:1013C00038C0D9FF39C0DAFFDECF01F0DECF02F03E
:1013D000DECF03F0DECF04F0000EB3EC0FF001C05F
:1013E00013F002C014F003C015F004C016F0000E94
:1013F0000F6E240E106EF40E116E4A0E126EE7EC94
:101400000CF00FC040F010C041F011C042F012C00B
:1014100043F0000E136E000E146E800E156E400E1B
:10142000166E40C00FF041C010F042C011F043C032
:1014300012F0E7EC0CF00FC028F010C029F011C03A
:101440002AF012C02BF0000E2C6E000E2D6E800EB6
:101450002E6EBF0E2F6E87EC0AF028C03CF029C01C
:101460003DF02AC03EF02BC03FF067EF0AF0AC9889
:10147000AC84B88667EF0AF020EE04F03850D92625
:101480003950DA22DF503A6E3B6A3B50000AD8B43A
:101490004CEF0AF037EF0AF03A50000AD8B41DEFCB
:1014A00008F0010AD8B477EF08F0030AD8B4D1EFF6
:1014B00008F0010AD8B42BEF09F0070AD8B485EF79
:1014C00009F0010AD8B4DEEF09F037EF0AF03CC0AA
:1014D00001F03DC002F03EC003F03FC004F0E3EC79
:1014E00011F00150AF6E3CC001F03DC002F03EC0B3
:1014F00003F03FC004F0E3EC11F002C001F003C0C0
:1015000002F004C003F0046A0150B06E12002B50C8
:10151000800B346E2B502B24366E2AAE92EF0AF0DD
:1015200094EF0AF095EF0AF036803650D8B49BEF6E
:101530000AF09DEF0AF0B2EF0AF03628D8A4A3EF24
:101540000AF0A5EF0AF0ADEF0AF0000E286E000ECB
:10155000296E000E2A6E000E2B6E2A8E000E2B6E48
:10156000BAEF0AF0000E286E000E296E000E2A6EE9
:10157000000E2B6E2F50800B356E34503518D8B4BA
:10158000C4EF0AF0C6EF0AF0C7EF0AF0348C2F5010
:101590002F24356E2EAECFEF0AF0D1EF0AF0D2EF46
:1015A0000AF035803550D8B4D8EF0AF0DAEF0AF0F7
:1015B000EFEF0AF03528D8A4E0EF0AF0E2EF0AF0E6
:1015C000EAEF0AF0000E2C6E000E2D6E000E2E6E4D
:1015D000000E2F6E2E8E000E2F6EF7EF0AF0000E0B
:1015E0002C6E000E2D6E000E2E6E000E2F6E3650DD
:1015F000355CD8B0FEEF0AF000EF0BF027EF0BF0F0
:1016000034AC05EF0BF007EF0BF009EF0BF0800E99
:10161000341A36C037F035C036F037C035F028C040
:1016200037F02CC028F037C02CF029C037F02DC07F
:1016300029F037C02DF02AC037F02EC02AF037C06D
:101640002EF02BC037F02FC02BF037C02FF0000E3C
:10165000376E365035C030F0316A305E000E315A88
:1016600031BE3CEF0BF0315009E11A0E305CD8A0CE
:101670003CEF0BF03EEF0BF075EF0BF0285029100C
:101680002A102B10D8A447EF0BF04AEF0BF0010EF5
:101690004BEF0BF0000E376E000E286E000E296E19
:1016A000000E2A6E000E2B6E35C036F07EEF0BF06A
:1016B00037A05DEF0BF05FEF0BF065EF0BF0D8900C
:1016C00037300109376E67EF0BF0D890373228A01A
:1016D0006CEF0BF06EEF0BF06FEF0BF0378E2B34DF
:1016E0002B322A3229322832362A3550365CD8A09D
:1016F0007CEF0BF07EEF0BF058EF0BF034BC83EF78
:101700000BF085EF0BF0C5EF0BF03650D8A48BEF44
:101710000BF08DEF0BF097EF0BF0000E286E000E24
:10172000296E000E2A6E000E2B6EE6EF0CF02C5088
:1017300028262D5029222E502A222F502B222BA032
:10174000A4EF0BF0A6EF0BF052EF0CF037A0ABEFCD
:101750000BF0ADEF0BF0B3EF0BF0D8903730010981
:10176000376EB5EF0BF0D890373228A0BAEF0BF0F8
:10177000BCEF0BF0BDEF0BF0378E2B342B322A323F
:1017800029322832362A52EF0CF02C50285C2D508A
:1017900029582E502A582B50800A306E2F50800A1C
:1017A0003058D8B0D6EF0BF0D8EF0BF003EF0CF0B9
:1017B00028502C5C306E29502D58316E2A502E58EE
:1017C000326E2B502F58336EFF0E3024286EFF0ED2
:1017D0003120296EFF0E32202A6EFF0E33202B6E31
:1017E000800E341A376C3750D8A4F9EF0BF0FBEFAA
:1017F0000BF00BEF0CF0010E2826000E29222A22F6
:101800002B220BEF0CF02C50285E2D50295A2E5015
:101810002A5A2F502B5A285029102A102B10D8A49E
:1018200014EF0CF016EF0CF04BEF0CF03750D8A47F
:101830001CEF0CF01EEF0CF04BEF0CF0000E286EBE
:10184000000E296E000E2A6E000E2B6EE6EF0CF0D5
:10185000D890283629362A362B3637AE32EF0CF0A0
:1018600034EF0CF035EF0CF0288037A03AEF0CF095
:101870003CEF0CF040EF0CF0D880373642EF0CF024
:10188000D89037363650D8B448EF0CF04AEF0CF009
:101890004BEF0CF036062AAE50EF0CF052EF0CF086
:1018A00028EF0CF0000E356E37AE59EF0CF05BEF01
:1018B0000CF073EF0CF037C030F07F0E3016D8B458
:1018C00064EF0CF066EF0CF06AEF0CF0010E356E71
:1018D00073EF0CF028A06FEF0CF071EF0CF073EFCA
:1018E0000CF066EF0CF03550D8B479EF0CF07BEFCC
:1018F0000CF0A6EF0CF0010E2826000E29222A2259
:101900002B222BA086EF0CF088EF0CF0A6EF0CF04A
:1019100028C030F029C031F02AC032F02BC033F09B
:101920003334333232323132303230C028F031C0C9
:1019300029F032C02AF033C02BF03628D8B4A3EFF8
:101940000CF0A5EF0CF0A6EF0CF0362A3628D8B430
:10195000ACEF0CF0AEEF0CF0B6EF0CF03650D8A4B4
:10196000B4EF0CF0B6EF0CF0C8EF0CF0000E286EE0
:10197000000E296E000E2A6E000E2B6E3650D8A473
:10198000C4EF0CF0C6EF0CF0C8EF0CF0000E346E94
:1019900036A0CDEF0CF0CFEF0CF0D2EF0CF02A8E8A
:1019A000D3EF0CF02A9ED89036302B6E34AEDBEF9E
:1019B0000CF0DDEF0CF0DEEF0CF02B8E28C028F0E1
:1019C00029C029F02AC02AF02BC02BF01200125097
:1019D000800B1F6E12501224266E11AEF2EF0CF027
:1019E000F4EF0CF0F5EF0CF026802650D8B4FBEFA6
:1019F0000CF0FDEF0CF012EF0DF02628D8A403EF49
:101A00000DF005EF0DF00DEF0DF0000E0F6E000E56
:101A1000106E000E116E000E126E118E000E126E00
:101A20001AEF0DF0000E0F6E000E106E000E116E0C
:101A3000000E126E1650800B1F1A16501624276EB9
:101A400015AE25EF0DF027EF0DF028EF0DF02780F4
:101A50002750D8B42EEF0DF030EF0DF045EF0DF01C
:101A60002728D8A436EF0DF038EF0DF040EF0DF039
:101A7000000E136E000E146E000E156E000E166E24
:101A8000158E000E166E4DEF0DF0000E136E000E4B
:101A9000146E000E156E000E166E135014101510F5
:101AA0001610D8A456EF0DF058EF0DF070EF0DF0B2
:101AB000000E0F6E000E106E000E116E000E126EF4
:101AC000800E11127F0E12121F5012120FC00FF053
:101AD00010C010F011C011F012C012F0B3EF0EF0F0
:101AE0002650D8A476EF0DF078EF0DF082EF0DF0D0
:101AF000000E0F6E000E106E000E116E000E126EB4
:101B0000B3EF0EF0275026C017F0186A175E000ECC
:101B1000185A7F0E1724206E000E1820216E0FC059
:101B20001BF010C01CF011C01DF012C01EF0000E02
:101B30000F6E000E106E000E116E000E126E000E73
:101B4000226E000E236E000E246E000E256E000E17
:101B5000276EE3EF0DF02750D8B4B1EF0DF0B3EFDF
:101B60000DF0CAEF0DF0D8901B361C361D361E3610
:101B7000D8900F3610361136123625AEC2EF0DF062
:101B8000C4EF0DF0C5EF0DF00F80D890223623364C
:101B90002436253613501B5C14501C5815501D5804
:101BA00016501E58D8A0D7EF0DF0D9EF0DF0E2EF88
:101BB0000DF0258C13501B5E14501C5A15501D5AE5
:101BC00016501E5A272A190E2764E9EF0DF0EBEF85
:101BD0000DF0ABEF0DF01B501C101D101E10D8B4F3
:101BE000F4EF0DF0F6EF0DF00EEF0EF022800EEF99
:101BF0000EF0D8900F3610361136123625AE03EFA0
:101C00000EF005EF0EF006EF0EF00F80D8902236A2
:101C10002336243625362006D8A0210611AE13EF30
:101C20000EF015EF0EF0F9EF0DF0000E276E25AE59
:101C30001CEF0EF01EEF0EF042EF0EF0FF0E22141E
:101C4000176EFF0E2314186EFF0E2414196E7F0EEC
:101C500025141A6E1750181019101A10D8B433EF33
:101C60000EF035EF0EF039EF0EF0010E276E42EF59
:101C70000EF00FA03EEF0EF040EF0EF042EF0EF030
:101C800035EF0EF02750D8B448EF0EF04AEF0EF0C3
:101C90006EEF0EF0010E0F26000E102211221222FE
:101CA00012A055EF0EF057EF0EF06EEF0EF00FC0D2
:101CB00017F010C018F011C019F012C01AF01A3441
:101CC0001A3219321832173217C00FF018C010F03C
:101CD00019C011F01AC012F0204A212A21BE79EF52
:101CE0000EF0215008E12028D8A079EF0EF07BEF0C
:101CF0000EF086EF0EF0000E216E2068000E0F6EC3
:101D0000000E106E000E116E000E126E21BE93EFCB
:101D10000EF0215006E12004D8B091EF0EF093EFC1
:101D20000EF0A1EF0EF0000E216E000E206E000EE0
:101D30000F6E000E106E000E116E000E126E000E71
:101D40001F6E20C026F026A0A8EF0EF0AAEF0EF01E
:101D5000ADEF0EF0118EAEEF0EF0119ED890263042
:101D6000126E64EF0DF012000600F2A8BAEF0EF04A
:101D7000BCEF0EF0C5EF0EF0F2A2C1EF0EF0C3EF14
:101D80000EF0C5EF0EF0D8EC14F0F0A6CAEF0EF08E
:101D9000CCEF0EF0D5EF0EF0F0A0D1EF0EF0D3EFB8
:101DA0000EF0D5EF0EF0D6EC14F0F0A8DAEF0EF04E
:101DB000DCEF0EF0E5EF0EF0F0A2E1EF0EF0E3EF56
:101DC0000EF0E5EF0EF0D4EC14F0F2A6EAEF0EF010
:101DD000ECEF0EF0FCEF0EF0F2A0F1EF0EF0F3EFEF
:101DE0000EF0FCEF0EF081A8F8EF0EF0FAEF0EF017
:101DF000FCEF0EF0D2EC14F0F2A601EF0FF003EFBF
:101E00000FF013EF0FF0F2A008EF0FF00AEF0FF052
:101E100013EF0FF081AA0FEF0FF011EF0FF013EF98
:101E20000FF0D0EC14F0F2A618EF0FF01AEF0FF04D
:101E30002AEF0FF0F2A01FEF0FF021EF0FF02AEFC3
:101E40000FF081AC26EF0FF028EF0FF02AEF0FF024
:101E5000CEEC14F0F2A62FEF0FF031EF0FF041EFC0
:101E60000FF0F2A036EF0FF038EF0FF041EF0FF068
:101E700081AE3DEF0FF03FEF0FF041EF0FF0CCECF4
:101E800014F09DAC46EF0FF048EF0FF051EF0FF05C
:101E90009EAC4DEF0FF04FEF0FF051EF0FF0DEEC77
:101EA00014F0F2AA56EF0FF058EF0FF061EF0FF0B9
:101EB000F2A45DEF0FF05FEF0FF061EF0FF0C2ECF7
:101EC00014F09DA066EF0FF068EF0FF071EF0FF0C8
:101ED0009EA06DEF0FF06FEF0FF071EF0FF0BCEC05
:101EE00014F09DA276EF0FF078EF0FF081EF0FF076
:101EF0009EA27DEF0FF07FEF0FF081EF0FF0C8ECA7
:101F000014F0A0A286EF0FF088EF0FF091EF0FF022
:101F1000A1A28DEF0FF08FEF0FF091EF0FF0B6EC65
:101F200014F09DA496EF0FF098EF0FF0A1EF0FF0D3
:101F30009EA49DEF0FF09FEF0FF0A1EF0FF0DCECF0
:101F400014F0A0A0A6EF0FF0A8EF0FF0B1EF0FF084
:101F5000A1A0ADEF0FF0AFEF0FF0B1EF0FF0DAECA3
:101F600014F07D921100096E0950D8B4BAEF0FF049
:101F7000BCEF0FF0DEEF0FF004BEC3EF0FF0C1EFC8
:101F80000FF0DEEF0FF001C005F002C006F003C055
:101F900007F004C008F0051E061E071E081E052ACD
:101FA000000E06220722082205C00BF006C00CF026
:101FB00007C00DF008C00EF0E6EF0FF001C00BF007
:101FC00002C00CF003C00DF004C00EF0015002106E
:101FD00003100410D8A4EFEF0FF0F1EF0FF0FBEFB8
:101FE0000FF0000E016E000E026E000E036E000E6A
:101FF000046E8CEF10F0960E0A6E05EF10F00A2AB0
:10200000D8900E320D320C320B32000E0B14056ECE
:10201000000E0C14066E000E0D14076EFE0E0E144C
:10202000086E0550061007100810D8A41AEF10F01B
:102030001CEF10F0FFEF0FF02AEF10F00A2A010E4C
:102040000B26000E0C220D220E22D8900E320D32DD
:102050000C320B32000E0B14056E000E0C14066EC3
:10206000000E0D14076EFF0E0E14086E05500610BC
:1020700007100810D8A43FEF10F041EF10F01EEF4A
:1020800010F049EF10F00A06D8900B360C360D36DA
:102090000E360DBE4EEF10F050EF10F058EF10F06E
:1020A000020E0A6056EF10F058EF10F043EF10F0F8
:1020B0000AB05DEF10F05FEF10F060EF10F00D9ED2
:1020C000D8900A320AC005F0066A076A086A05C095
:1020D00008F0076A066A056A05500B1206500C12D2
:1020E00007500D1208500E120950D8B47AEF10F0B4
:1020F0007CEF10F084EF10F004BE83EF10F081EF5E
:1021000010F084EF10F00E8E0BC001F00CC002F046
:102110000DC003F00EC004F01200010E096E015054
:102120000210D8B496EF10F098EF10F0B8EF10F05E
:1021300001C0D9FF02C0DAFFDF50070B036E050EA6
:102140000360A5EF10F0A7EF10F0B8EF10F001C09A
:10215000D9FF02C0DAFFDF30E832E832070B036E46
:10216000070E0364B6EF10F0B8EF10F01BEF11F09C
:10217000000E096E3CEF11F001C0D9FF02C0DAFF7A
:10218000DF30E832E832070B036E010E046E032ADB
:10219000CCEF10F0D8900436032ECAEF10F00450A4
:1021A000FF0A056E01C0D9FF02C0DAFFDF50070B3E
:1021B000066E0650020D940EF324D96E000EF42024
:1021C000DA6EDECF07F0DDCF08F007C0D9FF08C018
:1021D000DAFF0550DF163CEF11F001C0D9FF02C055
:1021E000DAFFDF30E832E832070B036E010E046ECF
:1021F000032AFDEF10F0D8900436032EFBEF10F009
:1022000001C0D9FF02C0DAFFDF50070B056E055091
:10221000020D940EF324D96E000EF420DA6EDECF98
:1022200006F0DDCF07F006C0D9FF07C0DAFF045083
:10223000DF123CEF11F001C0D9FF02C0DAFFDFBCB2
:1022400024EF11F027EF11F0010E28EF11F0000E2E
:10225000036E046A0450000AD8B431EF11F0B8EFED
:1022600010F00350000AD8B4BCEF10F0010AD8B443
:10227000EDEF10F0B8EF10F009501200010E0A6EE9
:1022800001500210D8B447EF11F049EF11F069EF97
:1022900011F001C0D9FF02C0DAFFDF50070B046E56
:1022A000050E046056EF11F058EF11F069EF11F0D0
:1022B00001C0D9FF02C0DAFFDF30E832E832070B95
:1022C000046E070E046467EF11F069EF11F0CCEFB4
:1022D00011F0000E0A6EE1EF11F001C0D9FF02C04B
:1022E000DAFFDF30E832E832070B046E010E056ECC
:1022F000042A7DEF11F0D8900536042E7BEF11F003
:102300000550FF0A066E01C0D9FF02C0DAFFDF5098
:10231000070B076E0750020D8A0EF324D96E000ECC
:10232000F420DA6EDECF08F0DDCF09F008C0D9FF67
:1023300009C0DAFF0650DF16E1EF11F001C0D9FF46
:1023400002C0DAFFDF30E832E832070B046E010E1C
:10235000056E042AAEEF11F0D8900536042EACEFCE
:1023600011F001C0D9FF02C0DAFFDF50070B066E83
:102370000650020D8A0EF324D96E000EF420DA6E98
:10238000DECF07F0DDCF08F007C0D9FF08C0DAFFC5
:102390000550DF12E1EF11F00350046E056A05509D
:1023A000000AD8B4D6EF11F069EF11F00450000A1A
:1023B000D8B46DEF11F0010AD8B49EEF11F069EFB7
:1023C00011F00A501200033404340A6E0A50D8A4E3
:1023D000ECEF11F0EEEF11F0F8EF11F0000E016EDE
:1023E000000E026E000E036E000E046E65EF12F01A
:1023F00001C005F002C006F003C007F004C008F0F9
:10240000200E08EF12F0D89008320732063205325B
:10241000E82E03EF12F00550096E038EFF0E011631
:10242000FF0E0216FF0E0316000E0416960E0A5E2D
:102430000ABE1FEF12F01DEF12F035EF12F00A5036
:10244000800A970FD8B027EF12F029EF12F02BEF88
:1024500012F0EEEF11F0D890043203320232013262
:102460000A3E2BEF12F04DEF12F01F0E0A643BEF05
:1024700012F03DEF12F045EF12F0EEEF11F0D890B0
:1024800001360236033604360A060A50D8A44BEF4A
:1024900012F04DEF12F03FEF12F00950D8B453EFA5
:1024A00012F055EF12F05DEF12F0041E031E021E33
:1024B000016C000E02220322042201C001F002C0BE
:1024C00002F003C003F004C004F01200A9EC14F001
:1024D0009E0E016E000E026E7A0E036E000E046EEA
:1024E00063EC14F0610E7A18D8A479EF12F07BEF48
:1024F00012F095EF12F07C0E0B6E000E0C6E42EC9B
:1025000013F09E0E046E000E056E1A0E066E100E6F
:10251000076E070E086E000E096E000E0A6E000EA2
:102520000B6E03EC13F068EF12F0620E7A18D8A469
:102530009CEF12F09EEF12F0B8EF12F07C0E0B6ED3
:10254000000E0C6E7DEC13F09E0E046E000E056EF8
:10255000110E066E100E076E080E086E000E096E44
:10256000000E0A6E000E0B6E03EC13F068EF12F013
:1025700068EF12F007EF00F00B500C10D8A4C3EF77
:1025800012F0C5EF12F0C7EF12F002EF13F071C0B6
:102590000EF00BC0D9FF0CC0DAFFDF500F0B0D6E31
:1025A0000E500D18F80B0D180E6E0BC0D9FF0CC095
:1025B000DAFFDF38070B0D6E0D460D460D460E5047
:1025C0000D18C70B0D180E6E0E9C0BC0D9FF0CC05A
:1025D000DAFFDFAE02D00E8E01D00E9E0E0E016E1F
:1025E000000E026E8DEC10F00E0E016E000E026EEB
:1025F0000BC0D9FF0CC0DAFF000EDFBE010E036E68
:102600003EEC11F0120004500510D8A40AEF13F0AC
:102610000CEF13F00EEF13F041EF13F0000E0E6EFF
:10262000000E0F6E000E106E000E116E32EF13F0E2
:1026300004C001F005C002F00E5006240C6E0F50CD
:1026400007200D6E0CC0F6FF0DC0F7FFF86A0800FA
:10265000F5CF03F094EC14F0010E0E26000E0F22BD
:102660001022112208500E5C09500F580A501058C1
:102670000B501158D8A03FEF13F041EF13F018EFB3
:1026800013F012000B500C10D8A449EF13F04BEFCD
:1026900013F04DEF13F07CEF13F070C00EF00BC091
:1026A000D9FF0CC0DAFFDF500F0B0D6E0E500D1866
:1026B000F80B0D180E6E0BC0D9FF0CC0DAFFDF3817
:1026C000070B0D6E0D460D460D460E500D18C70B2F
:1026D0000D180E6E0E9C0BC0D9FF0CC0DAFFDFAEDA
:1026E00002D00E8E01D00E9E0E0E016E000E026EF6
:1026F000010E036E3EEC11F012000B500C10D8A42A
:1027000084EF13F086EF13F088EF13F0B7EF13F0B8
:102710006FC00EF00BC0D9FF0CC0DAFFDF500F0BFB
:102720000D6E0E500D18F80B0D180E6E0BC0D9FF64
:102730000CC0DAFFDF38070B0D6E0D460D460D4657
:102740000E500D18C70B0D180E6E0E9C0BC0D9FF46
:102750000CC0DAFFDFAE02D00E8E01D00E9E0E0E40
:10276000016E000E026E000E036E3EEC11F01200C0
:1027700020EE05F00150D9260250DA22DFAAC3EF7D
:1027800013F0C5EF13F0E8EF13F0AC8A20EE05F07C
:102790000150D9260250DA22DFACD1EF13F0D3EF8B
:1027A00013F0D6EF13F09D88D7EF13F09D9820EE2D
:1027B00005F00150D9260250DA22DFAEE2EF13F025
:1027C000E4EF13F0E7EF13F0AC8CE8EF13F0AC9C00
:1027D000120020EE06F00150D9260250DA22DFAABC
:1027E000F4EF13F0F6EF13F019EF14F0AB8820EECE
:1027F00006F00150D9260250DA22DFAC02EF14F0C5
:1028000004EF14F007EF14F09D8A08EF14F09D9A7E
:1028100020EE06F00150D9260250DA22DFAE13EF87
:1028200014F015EF14F018EF14F0AB8C19EF14F04E
:10283000AB9C1200F80EF66E280EF76E000EF86EC6
:1028400000EE80F010EE30F00900F5CFEEFFE5501D
:10285000E150FAE1C00EF66E290EF76E000EF86E2A
:102860000900F5CF7BF00900F5CF7CF000EE46F0D3
:10287000350EEE6AE806FDE17D907D92000166EF7F
:1028800012F044504510D8A448EF14F04AEF14F069
:102890004CEF14F062EF14F0AB9E948E948C44C015
:1028A00038F045C039F013EC08F044C001F045C0E1
:1028B00002F0B8EC13F044C001F045C002F0E9ECBE
:1028C00013F0AB8E120001500210D8A46AEF14F07E
:1028D0006CEF14F06EEF14F07BEF14F09EAA73EF20
:1028E00014F075EF14F06EEF14F003C0D9FF04C0BC
:1028F000DAFFAECFDFFF1200800F810F820F830F50
:10290000840F890F8A0F8B0F8C0F8D0F920F930FEF
:10291000940F950F960F80250000002020000000E6
:10292000000000000000000001500210D8A49BEF3E
:1029300014F09DEF14F09FEF14F0A8EF14F0ACA288
:10294000A4EF14F0A6EF14F09FEF14F003C0ADFF56
:1029500012009E0E446E000E456E41EC14F07C0E8B
:102960000B6E000E0C6EBCEC12F01200A1924750E0
:10297000B36E46C0B2FF12009E904D50CF6E4CC059
:10298000CEFF1200F2945350D76E52C0D6FF120001
:102990009E926AC0CCFF1200F2901200F2901200D8
:1029A000F2901200F2901200F0921200F0901200D9
:1029B000F2921200A19012009E9412009E9C1200AE
:0229C000010113
:020000040020DA
:08000000FFFFFFFFFFFFFFFF00
:020000040030CA
:0E000000FF071F1FFF8185FF0FC00FE00F409D
:00000001FF
