:0400000007EF00F016
:0A0008006982AEED0EF00EEF15F068
:10100000003738392F3435362A3132332D23303DED
:051010002B2569000022
:10101600000E0001DA6F000EDB6F000EDC6F000EB3
:10102600DD6F35EF0AF0AC98AC94B896D6C0D9FF10
:10103600D7C0DAFFDECF16F0DECF17F0DECF18F01E
:10104600DECF19F0000EE5EC0FF016C028F017C041
:1010560029F018C02AF019C02BF0000E246E240EB9
:10106600256EF40E266E4A0E276EE1EC0CF024C0B7
:10107600DEF025C0DFF026C0E0F027C0E1F0000E6C
:10108600286E000E296E800E2A6E420E2B6EDEC072
:1010960024F0DFC025F0E0C026F0E1C027F0E1EC47
:1010A6000CF024C03DF025C03EF026C03FF027C01E
:1010B60040F0000E416E000E426E800E436EBF0E73
:1010C600446E80EC0AF03DC0DAF03EC0DBF03FC073
:1010D600DCF040C0DDF060EF0AF0AC98AC84B89666
:1010E600D6C0D9FFD7C0DAFFDECF16F0DECF17F0B5
:1010F600DECF18F0DECF19F0000EE5EC0FF016C0CB
:1011060028F017C029F018C02AF019C02BF0000EDD
:10111600246E240E256EF40E266E4A0E276EE1EC22
:101126000CF024C0DEF025C0DFF026C0E0F027C0BA
:10113600E1F0000E286E000E296E800E2A6E410E1A
:101146002B6EDEC024F0DFC025F0E0C026F0E1C043
:1011560027F0E1EC0CF024C03DF025C03EF026C09F
:101166003FF027C040F0000E416E000E426E800E2A
:10117600436EBF0E446E80EC0AF03DC0DAF03EC00E
:10118600DBF03FC0DCF040C0DDF060EF0AF0AC9869
:10119600AC94B886D6C0D9FFD7C0DAFFDECF16F03A
:1011A600DECF17F0DECF18F0DECF19F0000EE5EC3B
:1011B6000FF016C028F017C029F018C02AF019C081
:1011C6002BF0000E246E240E256EF40E266E4A0EAB
:1011D600276EE1EC0CF024C0DEF025C0DFF026C05F
:1011E600E0F027C0E1F0000E286E000E296E800E9A
:1011F6002A6E410E2B6EDEC024F0DFC025F0E0C063
:1012060026F0E1C027F0E1EC0CF024C03DF025C04B
:101216003EF026C03FF027C040F0000E416E000EA3
:10122600426E800E436EBF0E446E80EC0AF03DC0E7
:10123600DAF03EC0DBF03FC0DCF040C0DDF060EF2E
:101246000AF0AC98AC84B886D6C0D9FFD7C0DAFF0E
:10125600DECF16F0DECF17F0DECF18F0DECF19F0B6
:10126600000EE5EC0FF016C028F017C029F018C0E4
:101276002AF019C02BF0000E246E240E256EF40EF3
:10128600266E4A0E276EE1EC0CF024C0DEF025C077
:10129600DFF026C0E0F027C0E1F0000E286E000E59
:1012A600296E800E2A6E400E2B6EDEC024F0DFC043
:1012B60025F0E0C026F0E1C027F0E1EC0CF024C0F8
:1012C6003DF025C03EF026C03FF027C040F0000E9E
:1012D600416E000E426E800E436EBF0E446E80EC71
:1012E6000AF03DC0DAF03EC0DBF03FC0DCF040C0A3
:1012F600DDF060EF0AF0AC88B896D6C0D9FFD7C04B
:10130600DAFFDECF16F0DECF17F0DECF18F0DECF35
:1013160019F0000EE5EC0FF016C028F017C029F002
:1013260018C02AF019C02BF0000E246E240E256E6C
:10133600F40E266E4A0E276EE1EC0CF024C0DEF0A9
:1013460025C0DFF026C0E0F027C0E1F0000E286ED1
:10135600000E296E800E2A6E400E2B6EDEC024F023
:10136600DFC025F0E0C026F0E1C027F0E1EC0CF08C
:1013760024C03DF025C03EF026C03FF027C040F017
:10138600000E416E000E426E800E436EBF0E446E1E
:1013960080EC0AF03DC0DAF03EC0DBF03FC0DCF086
:1013A60040C0DDF060EF0AF0AC88B886D6C0D9FF41
:1013B600D7C0DAFFDECF16F0DECF17F0DECF18F09B
:1013C600DECF19F0000EE5EC0FF016C028F017C0BE
:1013D60029F018C02AF019C02BF0000E246E240E36
:1013E600256EF40E266E4A0E276EE1EC0CF024C034
:1013F600DEF025C0DFF026C0E0F027C0E1F0000EE9
:10140600286E000E296E800E2A6E400E2B6EDEC0F0
:1014160024F0DFC025F0E0C026F0E1C027F0E1ECC3
:101426000CF024C03DF025C03EF026C03FF027C09A
:1014360040F0000E416E000E426E800E436EBF0EEF
:10144600446E80EC0AF03DC0DAF03EC0DBF03FC0EF
:10145600DCF040C0DDF060EF0AF0AC98AC84B886F2
:1014660060EF0AF020EE04F0D651D926D751DA22E1
:10147600DF50D86FD96BD951000AD8B445EF0AF0BE
:1014860030EF0AF0D851000AD8B416EF08F0010A76
:10149600D8B470EF08F0030AD8B4CAEF08F0010A0E
:1014A600D8B424EF09F0070AD8B47EEF09F0010A90
:1014B600D8B4D7EF09F030EF0AF0DAC016F0DBC087
:1014C60017F0DCC018F0DDC019F0B5EC12F01650BC
:1014D600AF6EDAC016F0DBC017F0DCC018F0DDC066
:1014E60019F0B5EC12F017C016F018C017F019C0B5
:1014F60018F0196A1650B06E12004050800B0001A9
:10150600D26F40504024D46F3FAE8CEF0AF08EEF7E
:101516000AF08FEF0AF0D481D451D8B495EF0AF0CF
:1015260097EF0AF0ACEF0AF0D429D8A49DEF0AF0A1
:101536009FEF0AF0A7EF0AF0000E3D6E000E3E6E1A
:10154600000E3F6E000E406E3F8E000E406EB4EFF2
:101556000AF0000E3D6E000E3E6E000E3F6E000E4F
:10156600406E4450800BD36FD251D319D8B4BEEF1E
:101576000AF0C0EF0AF0C1EF0AF0D28D44504424BD
:10158600D36F43AEC9EF0AF0CBEF0AF0CCEF0AF007
:10159600D381D351D8B4D2EF0AF0D4EF0AF0E9EFF1
:1015A6000AF0D329D8A4DAEF0AF0DCEF0AF0E4EF68
:1015B6000AF0000E416E000E426E000E436E000EE3
:1015C600446E438E000E446EF1EF0AF0000E416E3B
:1015D600000E426E000E436E000E446ED451D35D73
:1015E600D8B0F8EF0AF0FAEF0AF021EF0BF0D2AD1F
:1015F600FFEF0AF001EF0BF003EF0BF0800ED21BAA
:10160600D4C0D5F0D3C0D4F0D5C0D3F03DC0D5F00A
:1016160041C03DF0D5C041F03EC0D5F042C03EF0DD
:10162600D5C042F03FC0D5F043C03FF0D5C043F02F
:1016360040C0D5F044C040F0D5C044F0000ED56F90
:10164600D451D3C0CEF0CF6BCE5F000ECF5BCFBFF1
:1016560036EF0BF0CF5109E11A0ECE5DD8A036EF6A
:101666000BF038EF0BF06FEF0BF03D503E103F10D4
:101676004010D8A441EF0BF044EF0BF0010E45EFFC
:101686000BF0000ED56F000E3D6E000E3E6E000E86
:101696003F6E000E406ED3C0D4F078EF0BF0D5A1AC
:1016A60057EF0BF059EF0BF05FEF0BF0D890D531F9
:1016B6000109D56F61EF0BF0D890D5333DA066EFE9
:1016C6000BF068EF0BF069EF0BF0D58F403440322A
:1016D6003F323E323D32D42BD351D45DD8A076EF83
:1016E6000BF078EF0BF052EF0BF0D2BD7DEF0BF065
:1016F6007FEF0BF0BFEF0BF0D451D8A485EF0BF0C2
:1017060087EF0BF091EF0BF0000E3D6E000E3E6E74
:10171600000E3F6E000E406EE0EF0CF041503D268D
:1017260042503E2243503F224450402240A09EEF6A
:101736000BF0A0EF0BF04CEF0CF0D5A1A5EF0BF0E2
:10174600A7EF0BF0ADEF0BF0D890D5310109D56FAF
:10175600AFEF0BF0D890D5333DA0B4EF0BF0B6EF5A
:101766000BF0B7EF0BF0D58F403440323F323E32AC
:101776003D32D42B4CEF0CF041503D5C42503E586C
:1017860043503F584050800ACE6F4450800ACE598D
:10179600D8B0D0EF0BF0D2EF0BF0FDEF0BF03D50D1
:1017A600415CCE6F3E504258CF6F3F504358D06F8A
:1017B60040504458D16FFF0ECE253D6EFF0ECF210F
:1017C6003E6EFF0ED0213F6EFF0ED121406E800E81
:1017D600D21BD56DD551D8A4F3EF0BF0F5EF0BF076
:1017E60005EF0CF0010E3D26000E3E223F22402260
:1017F60005EF0CF041503D5E42503E5A43503F5A71
:101806004450405A3D503E103F104010D8A40EEFB1
:101816000CF010EF0CF045EF0CF0D551D8A416EFF4
:101826000CF018EF0CF045EF0CF0000E3D6E000EBC
:101836003E6E000E3F6E000E406EE0EF0CF0D8904C
:101846003D363E363F364036D5AF2CEF0CF02EEF08
:101856000CF02FEF0CF03D80D5A134EF0CF036EFF5
:101866000CF03AEF0CF0D880D5373CEF0CF0D8905E
:10187600D537D451D8B442EF0CF044EF0CF045EF15
:101886000CF0D4073FAE4AEF0CF04CEF0CF022EF11
:101896000CF0000ED36FD5AF53EF0CF055EF0CF0F4
:1018A6006DEF0CF0D5C0CEF07F0ECE17D8B45EEF3C
:1018B6000CF060EF0CF064EF0CF0010ED36F6DEFDF
:1018C6000CF03DA069EF0CF06BEF0CF06DEF0CF037
:1018D60060EF0CF0D351D8B473EF0CF075EF0CF049
:1018E600A0EF0CF0010E3D26000E3E223F224022C4
:1018F60040A080EF0CF082EF0CF0A0EF0CF03DC0A2
:10190600CEF03EC0CFF03FC0D0F040C0D1F0D135D0
:10191600D133D033CF33CE33CEC03DF0CFC03EF03F
:10192600D0C03FF0D1C040F0D429D8B49DEF0CF020
:101936009FEF0CF0A0EF0CF0D42BD429D8B4A6EF6F
:101946000CF0A8EF0CF0B0EF0CF0D451D8A4AEEF29
:101956000CF0B0EF0CF0C2EF0CF0000E3D6E000E76
:101966003E6E000E3F6E000E406ED451D8A4BEEF00
:101976000CF0C0EF0CF0C2EF0CF0000ED26FD4A149
:10198600C7EF0CF0C9EF0CF0CCEF0CF03F8ECDEFAB
:101996000CF03F9ED890D431406ED2AFD5EF0CF00C
:1019A600D7EF0CF0D8EF0CF0408E3DC03DF03EC0B6
:1019B6003EF03FC03FF040C040F012002750800B81
:1019C600346E275027243B6E26AEECEF0CF0EEEF7C
:1019D6000CF0EFEF0CF03B803B50D8B4F5EF0CF079
:1019E600F7EF0CF00CEF0DF03B28D8A4FDEF0CF050
:1019F600FFEF0CF007EF0DF0000E246E000E256EC3
:101A0600000E266E000E276E268E000E276E14EF31
:101A16000DF0000E246E000E256E000E266E000ED2
:101A2600276E2B50800B341A2B502B243C6E2AAE7B
:101A36001FEF0DF021EF0DF022EF0DF03C803C5032
:101A4600D8B428EF0DF02AEF0DF03FEF0DF03C284B
:101A5600D8A430EF0DF032EF0DF03AEF0DF0000E96
:101A6600286E000E296E000E2A6E000E2B6E2A8E30
:101A7600000E2B6E47EF0DF0000E286E000E296E3D
:101A8600000E2A6E000E2B6E285029102A102B10DD
:101A9600D8A450EF0DF052EF0DF06AEF0DF0000EE6
:101AA600246E000E256E000E266E000E276E800E2A
:101AB60026127F0E27123450271224C024F025C088
:101AC60025F026C026F027C027F0ADEF0EF03B50DC
:101AD600D8A470EF0DF072EF0DF07CEF0DF0000E54
:101AE600246E000E256E000E266E000E276EADEFDC
:101AF6000EF03C503BC02CF02D6A2C5E000E2D5A89
:101B06007F0E2C24356E000E2D20366E24C030F04C
:101B160025C031F026C032F027C033F0000E246E07
:101B2600000E256E000E266E000E276E000E376E16
:101B3600000E386E000E396E000E3A6E000E3C6EC8
:101B4600DDEF0DF03C50D8B4ABEF0DF0ADEF0DF07E
:101B5600C4EF0DF0D8903036313632363336D89061
:101B660024362536263627363AAEBCEF0DF0BEEFC4
:101B76000DF0BFEF0DF02480D89037363836393661
:101B86003A362850305C295031582A5032582B505A
:101B96003358D8A0D1EF0DF0D3EF0DF0DCEF0DF0F8
:101BA6003A8C2850305E2950315A2A50325A2B50DE
:101BB600335A3C2A190E3C64E3EF0DF0E5EF0DF0C5
:101BC600A5EF0DF03050311032103310D8B4EEEFCF
:101BD6000DF0F0EF0DF008EF0EF0378008EF0EF085
:101BE600D89024362536263627363AAEFDEF0DF048
:101BF600FFEF0DF000EF0EF02480D8903736383620
:101C060039363A363506D8A0360626AE0DEF0EF032
:101C16000FEF0EF0F3EF0DF0000E3C6E3AAE16EF3E
:101C26000EF018EF0EF03CEF0EF0FF0E37142C6E90
:101C3600FF0E38142D6EFF0E39142E6E7F0E3A14D9
:101C46002F6E2C502D102E102F10D8B42DEF0EF015
:101C56002FEF0EF033EF0EF0010E3C6E3CEF0EF060
:101C660024A038EF0EF03AEF0EF03CEF0EF02FEF17
:101C76000EF03C50D8B442EF0EF044EF0EF068EF91
:101C86000EF0010E2426000E25222622272227A04A
:101C96004FEF0EF051EF0EF068EF0EF024C02CF06F
:101CA60025C02DF026C02EF027C02FF02F342F325E
:101CB6002E322D322C322CC024F02DC025F02EC011
:101CC60026F02FC027F0354A362A36BE73EF0EF0BF
:101CD600365008E13528D8A073EF0EF075EF0EF0F8
:101CE60080EF0EF0000E366E3568000E246E000E84
:101CF600256E000E266E000E276E36BE8DEF0EF098
:101D0600365006E13504D8B08BEF0EF08DEF0EF0AD
:101D16009BEF0EF0000E366E000E356E000E246E32
:101D2600000E256E000E266E000E276E000E346E17
:101D360035C03BF03BA0A2EF0EF0A4EF0EF0A7EFEC
:101D46000EF0268EA8EF0EF0269ED8903B30276E1A
:101D56005EEF0DF012000600FACF10F0FBCF11F087
:101D6600D9CF12F0DACF13F0F3CF14F0F4CF15F089
:101D7600F2A8C0EF0EF0C2EF0EF0CBEF0EF0F2A21B
:101D8600C7EF0EF0C9EF0EF0CBEF0EF00AEC16F02F
:101D9600F0A6D0EF0EF0D2EF0EF0DBEF0EF0F0A0D3
:101DA600D7EF0EF0D9EF0EF0DBEF0EF008EC16F0E1
:101DB600F0A8E0EF0EF0E2EF0EF0EBEF0EF0F0A27F
:101DC600E7EF0EF0E9EF0EF0EBEF0EF006EC16F093
:101DD600F2A6F0EF0EF0F2EF0EF002EF0FF0F2A027
:101DE600F7EF0EF0F9EF0EF002EF0FF081A8FEEF1D
:101DF6000EF000EF0FF002EF0FF004EC16F0F2A673
:101E060007EF0FF009EF0FF019EF0FF0F2A00EEF4A
:101E16000FF010EF0FF019EF0FF081AA15EF0FF08A
:101E260017EF0FF019EF0FF002EC16F0F2A61EEF07
:101E36000FF020EF0FF030EF0FF0F2A025EF0FF0CC
:101E460027EF0FF030EF0FF081AC2CEF0FF02EEFF5
:101E56000FF030EF0FF000EC16F0F2A635EF0FF0B2
:101E660037EF0FF047EF0FF0F2A03CEF0FF03EEF29
:101E76000FF047EF0FF081AE43EF0FF045EF0FF095
:101E860047EF0FF0FEEC15F09DAC4CEF0FF04EEF68
:101E96000FF057EF0FF09EAC53EF0FF055EF0FF02A
:101EA60057EF0FF010EC16F0F2AA5CEF0FF05EEFB2
:101EB6000FF067EF0FF0F2A463EF0FF065EF0FF08E
:101EC60067EF0FF0F4EC15F09DA06CEF0FF06EEFDE
:101ED6000FF077EF0FF09EA073EF0FF075EF0FF096
:101EE60077EF0FF0EEEC15F09DA27CEF0FF07EEF92
:101EF6000FF087EF0FF09EA283EF0FF085EF0FF044
:101F060087EF0FF0FAEC15F0A0A28CEF0FF08EEF32
:101F16000FF097EF0FF0A1A293EF0FF095EF0FF0F0
:101F260097EF0FF0E8EC15F09DA49CEF0FF09EEFF5
:101F36000FF0A7EF0FF09EA4A3EF0FF0A5EF0FF0A1
:101F4600A7EF0FF00EEC16F0A0A0ACEF0FF0AEEF7F
:101F56000FF0B7EF0FF0A1A0B3EF0FF0B5EF0FF052
:101F6600B7EF0FF00CEC16F09DA8BCEF0FF0BEEF2C
:101F76000FF0C7EF0FF09EA8C3EF0FF0C5EF0FF0FD
:101F8600C7EF0FF0B0EC15F09DAACCEF0FF0CEEF37
:101F96000FF0D7EF0FF09EAAD3EF0FF0D5EF0FF0AB
:101FA600D7EF0FF098EC15F015C0F4FF14C0F3FF4F
:101FB60013C0DAFF12C0D9FF11C0FBFF10C0FAFF31
:101FC600699211001E6E1E50D8B4ECEF0FF0EEEFC2
:101FD6000FF010EF10F019BEF5EF0FF0F3EF0FF062
:101FE60010EF10F016C01AF017C01BF018C01CF046
:101FF60019C01DF01A1E1B1E1C1E1D1E1A2A000EBD
:102006001B221C221D221AC020F01BC021F01CC05E
:1020160022F01DC023F018EF10F016C020F017C0F4
:1020260021F018C022F019C023F01650171018100E
:102036001910D8A421EF10F023EF10F02DEF10F0B7
:10204600000E166E000E176E000E186E000E196E3C
:10205600BEEF10F0960E1F6E37EF10F01F2AD890C5
:102066002332223221322032000E20141A6E000E44
:1020760021141B6E000E22141C6EFE0E23141D6E00
:102086001A501B101C101D10D8A44CEF10F04EEF68
:1020960010F031EF10F05CEF10F01F2A010E202631
:1020A600000E212222222322D890233222322132EC
:1020B6002032000E20141A6E000E21141B6E000E24
:1020C60022141C6EFF0E23141D6E1A501B101C10BA
:1020D6001D10D8A471EF10F073EF10F050EF10F050
:1020E6007BEF10F01F06D890203621362236233695
:1020F60022BE80EF10F082EF10F08AEF10F0020E91
:102106001F6088EF10F08AEF10F075EF10F01FB027
:102116008FEF10F091EF10F092EF10F0229ED89012
:102126001F321FC01AF01B6A1C6A1D6A1AC01DF0F6
:102136001C6A1B6A1A6A1A5020121B5021121C5064
:1021460022121D5023121E50D8B4ACEF10F0AEEF81
:1021560010F0B6EF10F019BEB5EF10F0B3EF10F0B7
:10216600B6EF10F0238E20C016F021C017F022C063
:1021760018F023C019F01200010E1E6E165017102B
:10218600D8B4C8EF10F0CAEF10F0EAEF10F016C09E
:10219600D9FF17C0DAFFDF50070B186E050E18605F
:1021A600D7EF10F0D9EF10F0EAEF10F016C0D9FF14
:1021B60017C0DAFFDF30E832E832070B186E070E79
:1021C6001864E8EF10F0EAEF10F04DEF11F0000E92
:1021D6001E6E6EEF11F016C0D9FF17C0DAFFDF30A2
:1021E600E832E832070B186E010E196E182AFEEF58
:1021F60010F0D8901936182EFCEF10F01950FF0A7F
:102206001A6E16C0D9FF17C0DAFFDF50070B1B6E18
:102216001B50020D940EF324D96E000EF420DA6ED4
:10222600DECF1CF0DDCF1DF01CC0D9FF1DC0DAFFCC
:102236001A50DF166EEF11F016C0D9FF17C0DAFF7D
:10224600DF30E832E832070B186E010E196E182AD5
:102256002FEF11F0D8901936182E2DEF11F016C069
:10226600D9FF17C0DAFFDF50070B1A6E1A50020D9E
:10227600940EF324D96E000EF420DA6EDECF1BF036
:10228600DDCF1CF01BC0D9FF1CC0DAFF1950DF12CE
:102296006EEF11F016C0D9FF17C0DAFFDFBC56EF9C
:1022A60011F059EF11F0010E5AEF11F0000E186EF1
:1022B600196A1950000AD8B463EF11F0EAEF10F06A
:1022C6001850000AD8B4EEEF10F0010AD8B41FEF88
:1022D60011F0EAEF10F01E501200010E1F6E16509C
:1022E6001710D8B479EF11F07BEF11F09BEF11F0D6
:1022F60016C0D9FF17C0DAFFDF50070B196E050E9F
:10230600196088EF11F08AEF11F09BEF11F016C0FB
:10231600D9FF17C0DAFFDF30E832E832070B196E53
:10232600070E196499EF11F09BEF11F0FEEF11F013
:10233600000E1F6E13EF12F016C0D9FF17C0DAFF9A
:10234600DF30E832E832070B196E010E1A6E192AD1
:10235600AFEF11F0D8901A36192EADEF11F01A50D2
:10236600FF0A1B6E16C0D9FF17C0DAFFDF50070B36
:102376001C6E1C50020D8A0EF324D96E000EF4203A
:10238600DA6EDECF1DF0DDCF1EF01DC0D9FF1EC0F8
:10239600DAFF1B50DF1613EF12F016C0D9FF17C075
:1023A600DAFFDF30E832E832070B196E010E1A6EDB
:1023B600192AE0EF11F0D8901A36192EDEEF11F037
:1023C60016C0D9FF17C0DAFFDF50070B1B6E1B5074
:1023D600020D8A0EF324D96E000EF420DA6EDECFDB
:1023E6001CF0DDCF1DF01CC0D9FF1DC0DAFF1A504E
:1023F600DF1213EF12F01850196E1A6A1A50000AFB
:10240600D8B408EF12F09BEF11F01950000AD8B4B7
:102416009FEF11F0010AD8B4D0EF11F09BEF11F045
:102426001F50120001500210D8B41CEF12F01EEF1C
:1024360012F03EEF12F001C0D9FF02C0DAFFDF5002
:10244600070B046E050E04602BEF12F02DEF12F051
:102456003EEF12F001C0D9FF02C0DAFFDF30E832EA
:10246600E832070B046E070E04643CEF12F03EEFF1
:1024760012F09FEF12F0B4EF12F001C0D9FF02C0C4
:10248600DAFFDF30E832E832070B046E010E056E24
:10249600042A50EF12F0D8900536042E4EEF12F0B3
:1024A6000550FF0A066E01C0D9FF02C0DAFFDF50F1
:1024B600070B076E0750020D8A0EF324D96E000E25
:1024C600F420DA6EDECF08F0DDCF09F008C0D9FFC0
:1024D60009C0DAFF0650DF16B4EF12F001C0D9FFCB
:1024E60002C0DAFFDF30E832E832070B046E010E75
:1024F600056E042A81EF12F0D8900536042E7FEF80
:1025060012F001C0D9FF02C0DAFFDF50070B066EDA
:102516000650020D8A0EF324D96E000EF420DA6EF0
:10252600DECF07F0DDCF08F007C0D9FF08C0DAFF1D
:102536000550DF12B4EF12F00350046E056A055021
:10254600000AD8B4A9EF12F03EEF12F00450000AC8
:10255600D8B440EF12F0010AD8B471EF12F03EEF92
:1025660012F01200183419341F6E1F50D8A4BEEF93
:1025760012F0C0EF12F0CAEF12F0000E166E000E47
:10258600176E000E186E000E196E37EF13F016C098
:102596001AF017C01BF018C01CF019C01DF0200E51
:1025A600DAEF12F0D8901D321C321B321A32E82EA6
:1025B600D5EF12F01A501E6E188EFF0E1616FF0E6D
:1025C6001716FF0E1816000E1916960E1F5E1FBE62
:1025D600F1EF12F0EFEF12F007EF13F01F50800A41
:1025E600970FD8B0F9EF12F0FBEF12F0FDEF12F0F3
:1025F600C0EF12F0D89019321832173216321F3E39
:10260600FDEF12F01FEF13F01F0E1F640DEF13F016
:102616000FEF13F017EF13F0C0EF12F0D890163645
:102626001736183619361F061F50D8A41DEF13F09B
:102636001FEF13F011EF13F01E50D8B425EF13F06F
:1026460027EF13F02FEF13F0191E181E171E166C26
:10265600000E17221822192216C016F017C017F0FE
:1026660018C018F019C019F0120001500210D8B4A1
:102676003FEF13F041EF13F061EF13F001C0D9FF04
:1026860002C0DAFFDF50070B036E050E03604EEF44
:1026960013F050EF13F061EF13F001C0D9FF02C041
:1026A600DAFFDF30E832E832070B036E070E036409
:1026B6005FEF13F061EF13F063EF13F08FEF13F09A
:1026C60001C0D9FF02C0DAFFDF30E832E832070B7B
:1026D600036E010E046E032A73EF13F0D8900436CE
:1026E600032E71EF13F001C0D9FF02C0DAFFDF50ED
:1026F600070B056E0550020D8A0EF324D96E000EE7
:10270600F420DA6EDECF06F0DDCF07F006C0D9FF83
:1027160007C0DAFF0450DF1A120020EE07F0165049
:10272600D9261750DA22DFAA9BEF13F09DEF13F09C
:10273600E1EF13F0AB8820EE0EF01650D9261750B5
:10274600DA22DECF4BF0DDCF4CF020EE10F0165043
:10275600D9261750DA22DECFCAF0DDCFCBF020EE35
:1027660012F01650D9261750DA22DECFC8F0DDCF88
:10277600C9F020EE07F01650D9261750DA22DFAC42
:10278600C7EF13F0C9EF13F0CFEF13F09D8A9D8AC0
:10279600F28EF28CD0EF13F09D9A20EE07F01650D1
:1027A600D9261750DA22DFAEDBEF13F0DDEF13F098
:1027B600E0EF13F0AB8CE1EF13F0AB9C120020506E
:1027C6002110D8A4E9EF13F0EBEF13F0EDEF13F0BF
:1027D60028EF14F05CC023F020C0D9FF21C0DAFF37
:1027E600DF500F0B226E23502218F80B2218236E8F
:1027F60020C0D9FF21C0DAFFDF38070B226E224640
:102806002246224623502218C70B2218236E239CE9
:1028160020C0D9FF21C0DAFFDFAE02D0238E01D05F
:10282600239E230E166E000E176EBFEC10F0230EBD
:10283600166E000E176E20C0D9FF21C0DAFF000EFB
:10284600DFBE010E186E70EC11F0120020EE05F0DE
:102856001650D9261750DA22DFAA34EF14F036EFD5
:1028660014F066EF14F0AC8A20EE0CF01650D92660
:102876001750DA22DECF4DF0DDCF4EF020EE05F018
:102886001650D9261750DA22DFAC4CEF14F04EEF73
:1028960014F054EF14F09D889D88F28EF28C55EF5B
:1028A60014F09D9820EE05F01650D9261750DA221E
:1028B600DFAE60EF14F062EF14F065EF14F0AC8C4D
:1028C60066EF14F0AC9C12000A500B10D8A46EEF01
:1028D60014F070EF14F072EF14F0A1EF14F05BC077
:1028E6000DF00AC0D9FF0BC0DAFFDF500F0B0C6EDC
:1028F6000D500C18F80B0C180D6E0AC0D9FF0BC042
:10290600DAFFDF38070B0C6E0C460C460C460D50F2
:102916000C18C70B0C180D6E0D9C0AC0D9FF0BC006
:10292600DAFFDFAE02D00D8E01D00D9E0D0E016EC8
:10293600000E026E010E036E15EC12F01200085026
:102946000910D8A4A9EF14F0ABEF14F0ADEF14F012
:10295600DAEF14F059C00BF008C0D9FF09C0DAFF4E
:10296600DF500F0B0A6E0B500A18F80B0A180B6E85
:1029760008C0D9FF09C0DAFFDF38070B0A6E0A461E
:102986000A460A460B500A18C70B0A180B6E0B9C10
:1029960008C0D9FF09C0DAFFDFAE02D00B8E01D026
:1029A6000B9E0B0E016E000E026E38EC13F0120039
:1029B600670E086E000E096EA2EC14F09E0E016EF4
:1029C600000E026E650E036E000E046E61EC15F0CD
:1029D600666EFCEF14F0680E0A6E000E0B6E67EC66
:1029E60014F0670E0A6E000E0B6E67EC14F00DEF16
:1029F60015F065500E6E0F6A0F50000AD8B406EF38
:102A060015F00DEF15F00E50610AD8B4EEEF14F084
:102A16000DEF15F01200FE0EF66E2A0EF76E000E82
:102A2600F86E00EE80F010EE32F00900F5CFEEFF02
:102A3600E550E150FAE1240EF66E2C0EF76E000E0C
:102A4600F86E0900F5CF66F00900F5CF67F00900CA
:102A5600F5CF68F000EEB2F01C0EEE6AE806FDE176
:102A660000EE45F0210EEE6AE806FDE169906992F6
:102A76000001E2EF15F00001E251E311D8A446EFA0
:102A860015F048EF15F04AEF15F060EF15F0AB9E24
:102A9600948E948CE2C0D6F0E3C0D7F00BEC08F02D
:102AA600E2C016F0E3C017F029EC14F0E2C016F00D
:102AB600E3C017F090EC13F0AB8E1200010E056E1A
:102AC60001500210D8A46AEF15F06CEF15F070EF04
:102AD60015F0000E056E7DEF15F09EAA75EF15F048
:102AE60077EF15F06CEF15F003C0D9FF04C0DAFFDD
:102AF600AECFDFFF05501200800F810F820F830FCC
:102B0600840F890F8A0F8B0F8C0F8D0F920F930FE7
:102B1600940F950F960F802500000060006000005E
:102B26000000B62BB629000000004B504C10D8B45C
:102B36009FEF15F0A1EF15F0AFEF15F002D8ADEF4E
:102B460015F00500FA6E4B50FD6E4C50FE6EFF6A96
:102B5600FA501200AFEF15F012009D984D504E102E
:102B6600D8B4B8EF15F0BAEF15F0C6EF15F002D8E5
:102B7600C6EF15F00500FA6E4D50FD6E4E50FE6E16
:102B8600FF6AFA50120012009E0E0001E26F000E5C
:102B9600E36F3EEC15F0680E206E000E216EE2EC3F
:102BA60013F0670E206E000E216EE2EC13F0120099
:102BB600680E086E000E096EA2EC14F01200C7EC47
:102BC60015F0E4EF15F007EF00F0A1924650B36E52
:102BD60045C0B2FF12009E904850CF6E47C0CEFF50
:102BE6001200F2944A50D76E49C0D6FF12009E9248
:102BF60055C0CCFF1200F2901200F2901200F29033
:102C06001200F2901200F0921200F0901200F2926E
:102C16001200A19012009E9412009E9C12000101C7
:012C2600713C
:020000040020DA
:08000000FFFFFFFFFFFFFFFF00
:020000040030CA
:0E000000FF071F1FFF8185FF0FC00FE00F409D
:00000001FF
