:0400000007EF00F016
:0A0008007D82ACED0EF096EF11F0D2
:10100000003738392F3435362A3132332D23303DED
:051010002B2569000022
:10101600000E3C6E000E3D6E000E3E6E000E3F6EE4
:1010260034EF0AF0AC98AC94B89638C0D9FF39C002
:10103600DAFFDECF01F0DECF02F0DECF03F0DECF47
:1010460004F0000EABEC0FF001C013F002C014F078
:1010560003C015F004C016F0000E0F6E240E106EBD
:10106600F40E116E4A0E126EDFEC0CF00FC040F05B
:1010760010C041F011C042F012C043F0000E136ED2
:10108600000E146E800E156E420E166E40C00FF0E6
:1010960041C010F042C011F043C012F0DFEC0CF07A
:1010A6000FC028F010C029F011C02AF012C02BF092
:1010B600000E2C6E000E2D6E800E2E6EBF0E2F6E45
:1010C6007FEC0AF028C03CF029C03DF02AC03EF073
:1010D6002BC03FF05FEF0AF0AC98AC84B89638C0EE
:1010E600D9FF39C0DAFFDECF01F0DECF02F0DECF66
:1010F60003F0DECF04F0000EABEC0FF001C013F0EE
:1011060002C014F003C015F004C016F0000E0F6EF6
:10111600240E106EF40E116E4A0E126EDFEC0CF0F9
:101126000FC040F010C041F011C042F012C043F0B1
:10113600000E136E000E146E800E156E410E166EA6
:1011460040C00FF041C010F042C011F043C012F091
:10115600DFEC0CF00FC028F010C029F011C02AF007
:1011660012C02BF0000E2C6E000E2D6E800E2E6E11
:10117600BF0E2F6E7FEC0AF028C03CF029C03DF070
:101186002AC03EF02BC03FF05FEF0AF0AC98AC945B
:10119600B88638C0D9FF39C0DAFFDECF01F0DECF1E
:1011A60002F0DECF03F0DECF04F0000EABEC0FF062
:1011B60001C013F002C014F003C015F004C016F00D
:1011C600000E0F6E240E106EF40E116E4A0E126E85
:1011D600DFEC0CF00FC040F010C041F011C042F03F
:1011E60012C043F0000E136E000E146E800E156EC4
:1011F600410E166E40C00FF041C010F042C011F013
:1012060043C012F0DFEC0CF00FC028F010C029F03C
:1012160011C02AF012C02BF0000E2C6E000E2D6E9F
:10122600800E2E6EBF0E2F6E7FEC0AF028C03CF0AB
:1012360029C03DF02AC03EF02BC03FF05FEF0AF018
:10124600AC98AC84B88638C0D9FF39C0DAFFDECF97
:1012560001F0DECF02F0DECF03F0DECF04F0000EA9
:10126600ABEC0FF001C013F002C014F003C015F090
:1012760004C016F0000E0F6E240E106EF40E116EE2
:101286004A0E126EDFEC0CF00FC040F010C041F0B9
:1012960011C042F012C043F0000E136E000E146E21
:1012A600800E156E400E166E40C00FF041C010F055
:1012B60042C011F043C012F0DFEC0CF00FC028F072
:1012C60010C029F011C02AF012C02BF0000E2C6EAF
:1012D600000E2D6E800E2E6EBF0E2F6E7FEC0AF066
:1012E60028C03CF029C03DF02AC03EF02BC03FF09C
:1012F6005FEF0AF0AC88B89638C0D9FF39C0DAFF7C
:10130600DECF01F0DECF02F0DECF03F0DECF04F059
:10131600000EABEC0FF001C013F002C014F003C0D6
:1013260015F004C016F0000E0F6E240E106EF40EAB
:10133600116E4A0E126EDFEC0CF00FC040F010C0BA
:1013460041F011C042F012C043F0000E136E000EC1
:10135600146E800E156E400E166E40C00FF041C022
:1013660010F042C011F043C012F0DFEC0CF00FC0D9
:1013760028F010C029F011C02AF012C02BF0000E80
:101386002C6E000E2D6E800E2E6EBF0E2F6E7FEC15
:101396000AF028C03CF029C03DF02AC03EF02BC020
:1013A6003FF05FEF0AF0AC88B88638C0D9FF39C085
:1013B600DAFFDECF01F0DECF02F0DECF03F0DECFC4
:1013C60004F0000EABEC0FF001C013F002C014F0F5
:1013D60003C015F004C016F0000E0F6E240E106E3A
:1013E600F40E116E4A0E126EDFEC0CF00FC040F0D8
:1013F60010C041F011C042F012C043F0000E136E4F
:10140600000E146E800E156E400E166E40C00FF064
:1014160041C010F042C011F043C012F0DFEC0CF0F6
:101426000FC028F010C029F011C02AF012C02BF00E
:10143600000E2C6E000E2D6E800E2E6EBF0E2F6EC1
:101446007FEC0AF028C03CF029C03DF02AC03EF0EF
:101456002BC03FF05FEF0AF0AC98AC84B8865FEF24
:101466000AF020EE04F03850D9263950DA22DF503F
:101476003A6E3B6A3B50000AD8B444EF0AF02FEFAD
:101486000AF03A50000AD8B415EF08F0010AD8B4A9
:101496006FEF08F0030AD8B4C9EF08F0010AD8B410
:1014A60023EF09F0070AD8B47DEF09F0010AD8B492
:1014B600D6EF09F02FEF0AF03CC001F03DC002F074
:1014C6003EC003F03FC004F085EC10F00150AF6E53
:1014D6003CC001F03DC002F03EC003F03FC004F046
:1014E60085EC10F002C001F003C002F004C003F066
:1014F600046A0150B06E12002B50800B346E2B50D4
:101506002B24366E2AAE8AEF0AF08CEF0AF08DEFA6
:101516000AF036803650D8B493EF0AF095EF0AF009
:10152600AAEF0AF03628D8A49BEF0AF09DEF0AF03E
:10153600A5EF0AF0000E286E000E296E000E2A6E28
:10154600000E2B6E2A8E000E2B6EB2EF0AF0000EE6
:10155600286E000E296E000E2A6E000E2B6E2F507E
:10156600800B356E34503518D8B4BCEF0AF0BEEF98
:101576000AF0BFEF0AF0348C2F502F24356E2EAEB2
:10158600C7EF0AF0C9EF0AF0CAEF0AF03580355006
:10159600D8B4D0EF0AF0D2EF0AF0E7EF0AF0352818
:1015A600D8A4D8EF0AF0DAEF0AF0E2EF0AF0000E5C
:1015B6002C6E000E2D6E000E2E6E000E2F6E2E8ED1
:1015C600000E2F6EEFEF0AF0000E2C6E000E2D6E41
:1015D600000E2E6E000E2F6E3650355CD8B0F6EF2C
:1015E6000AF0F8EF0AF01FEF0BF034ACFDEF0AF04B
:1015F600FFEF0AF001EF0BF0800E341A36C037F019
:1016060035C036F037C035F028C037F02CC028F08A
:1016160037C02CF029C037F02DC029F037C02DF087
:101626002AC037F02EC02AF037C02EF02BC037F074
:101636002FC02BF037C02FF0000E376E365035C056
:1016460030F0316A305E000E315A31BE34EF0BF0A5
:10165600315009E11A0E305CD8A034EF0BF036EFAA
:101666000BF06DEF0BF0285029102A102B10D8A480
:101676003FEF0BF042EF0BF0010E43EF0BF0000EC5
:10168600376E000E286E000E296E000E2A6E000EB2
:101696002B6E35C036F076EF0BF037A055EF0BF01A
:1016A60057EF0BF05DEF0BF0D89037300109376E2E
:1016B6005FEF0BF0D890373228A064EF0BF066EF9F
:1016C6000BF067EF0BF0378E2B342B322A32293290
:1016D6002832362A3550365CD8A074EF0BF076EFF8
:1016E6000BF050EF0BF034BC7BEF0BF07DEF0BF003
:1016F600BDEF0BF03650D8A483EF0BF085EF0BF05F
:101706008FEF0BF0000E286E000E296E000E2A6E6B
:10171600000E2B6EDEEF0CF02C5028262D502922C1
:101726002E502A222F502B222BA09CEF0BF09EEF3F
:101736000BF04AEF0CF037A0A3EF0BF0A5EF0BF080
:10174600ABEF0BF0D89037300109376EADEF0BF0E9
:10175600D890373228A0B2EF0BF0B4EF0BF0B5EF0C
:101766000BF0378E2B342B322A3229322832362A86
:101776004AEF0CF02C50285C2D5029582E502A5830
:101786002B50800A306E2F50800A3058D8B0CEEFDA
:101796000BF0D0EF0BF0FBEF0BF028502C5C306E0B
:1017A60029502D58316E2A502E58326E2B502F58F4
:1017B600336EFF0E3024286EFF0E3120296EFF0E89
:1017C60032202A6EFF0E33202B6E800E341A376CB1
:1017D6003750D8A4F1EF0BF0F3EF0BF003EF0CF05A
:1017E600010E2826000E29222A222B2203EF0CF0B6
:1017F6002C50285E2D50295A2E502A5A2F502B5ADB
:10180600285029102A102B10D8A40CEF0CF00EEF3C
:101816000CF043EF0CF03750D8A414EF0CF016EF91
:101826000CF043EF0CF0000E286E000E296E000E31
:101836002A6E000E2B6EDEEF0CF0D8902836293675
:101846002A362B3637AE2AEF0CF02CEF0CF02DEFA4
:101856000CF0288037A032EF0CF034EF0CF038EFA4
:101866000CF0D88037363AEF0CF0D8903736365031
:10187600D8B440EF0CF042EF0CF043EF0CF0360614
:101886002AAE48EF0CF04AEF0CF020EF0CF0000EF9
:10189600356E37AE51EF0CF053EF0CF06BEF0CF0EA
:1018A60037C030F07F0E3016D8B45CEF0CF05EEF28
:1018B6000CF062EF0CF0010E356E6BEF0CF028A009
:1018C60067EF0CF069EF0CF06BEF0CF05EEF0CF0CD
:1018D6003550D8B471EF0CF073EF0CF09EEF0CF0AE
:1018E600010E2826000E29222A222B222BA07EEF6B
:1018F6000CF080EF0CF09EEF0CF028C030F029C001
:1019060031F02AC032F02BC033F033343332323266
:101916003132303230C028F031C029F032C02AF0DE
:1019260033C02BF03628D8B49BEF0CF09DEF0CF0AB
:101936009EEF0CF0362A3628D8B4A4EF0CF0A6EFAA
:101946000CF0AEEF0CF03650D8A4ACEF0CF0AEEFC6
:101956000CF0C0EF0CF0000E286E000E296E000E83
:101966002A6E000E2B6E3650D8A4BCEF0CF0BEEFDC
:101976000CF0C0EF0CF0000E346E36A0C5EF0CF084
:10198600C7EF0CF0CAEF0CF02A8ECBEF0CF02A9EB4
:10199600D89036302B6E34AED3EF0CF0D5EF0CF07A
:1019A600D6EF0CF02B8E28C028F029C029F02AC0CB
:1019B6002AF02BC02BF012001250800B1F6E125013
:1019C6001224266E11AEEAEF0CF0ECEF0CF0EDEF00
:1019D6000CF026802650D8B4F3EF0CF0F5EF0CF09F
:1019E6000AEF0DF02628D8A4FBEF0CF0FDEF0CF063
:1019F60005EF0DF0000E0F6E000E106E000E116E4C
:101A0600000E126E118E000E126E12EF0DF0000E09
:101A16000F6E000E106E000E116E000E126E165036
:101A2600800B1F1A16501624276E15AE1DEF0DF0EB
:101A36001FEF0DF020EF0DF027802750D8B426EFCA
:101A46000DF028EF0DF03DEF0DF02728D8A42EEF6E
:101A56000DF030EF0DF038EF0DF0000E136E000EA6
:101A6600146E000E156E000E166E158E000E166E96
:101A760045EF0DF0000E136E000E146E000E156E7F
:101A8600000E166E1350141015101610D8A44EEF33
:101A96000DF050EF0DF068EF0DF0000E0F6E000E1A
:101AA600106E000E116E000E126E800E11127F0E59
:101AB60012121F5012120FC00FF010C010F011C0FA
:101AC60011F012C012F0ABEF0EF02650D8A46EEF54
:101AD6000DF070EF0DF07AEF0DF0000E0F6E000EA8
:101AE600106E000E116E000E126EABEF0EF0275048
:101AF60026C017F0186A175E000E185A7F0E1724B4
:101B0600206E000E1820216E0FC01BF010C01CF0B6
:101B160011C01DF012C01EF0000E0F6E000E106EEA
:101B2600000E116E000E126E000E226E000E236E57
:101B3600000E246E000E256E000E276EDBEF0DF0F4
:101B46002750D8B4A9EF0DF0ABEF0DF0C2EF0DF0B2
:101B5600D8901B361C361D361E36D8900F361036DA
:101B66001136123625AEBAEF0DF0BCEF0DF0BDEF13
:101B76000DF00F80D89022362336243625361350A2
:101B86001B5C14501C5815501D5816501E58D8A0D2
:101B9600CFEF0DF0D1EF0DF0DAEF0DF0258C1350ED
:101BA6001B5E14501C5A15501D5A16501E5A272AD1
:101BB600190E2764E1EF0DF0E3EF0DF0A3EF0DF042
:101BC6001B501C101D101E10D8B4ECEF0DF0EEEFDC
:101BD6000DF006EF0EF0228006EF0EF0D8900F36CD
:101BE60010361136123625AEFBEF0DF0FDEF0DF077
:101BF600FEEF0DF00F80D890223623362436253698
:101C06002006D8A0210611AE0BEF0EF00DEF0EF058
:101C1600F1EF0DF0000E276E25AE14EF0EF016EF65
:101C26000EF03AEF0EF0FF0E2214176EFF0E23147D
:101C3600186EFF0E2414196E7F0E25141A6E175097
:101C4600181019101A10D8B42BEF0EF02DEF0EF055
:101C560031EF0EF0010E276E3AEF0EF00FA036EFC1
:101C66000EF038EF0EF03AEF0EF02DEF0EF0275093
:101C7600D8B440EF0EF042EF0EF066EF0EF0010E14
:101C86000F26000E10221122122212A04DEF0EF086
:101C96004FEF0EF066EF0EF00FC017F010C018F001
:101CA60011C019F012C01AF01A341A321932183249
:101CB600173217C00FF018C010F019C011F01AC073
:101CC60012F0204A212A21BE71EF0EF0215008E1C0
:101CD6002028D8A071EF0EF073EF0EF07EEF0EF015
:101CE600000E216E2068000E0F6E000E106E000EA4
:101CF600116E000E126E21BE8BEF0EF0215006E122
:101D06002004D8B089EF0EF08BEF0EF099EF0EF0AD
:101D1600000E216E000E206E000E0F6E000E106E6D
:101D2600000E116E000E126E000E1F6E20C026F001
:101D360026A0A0EF0EF0A2EF0EF0A5EF0EF0118E8A
:101D4600A6EF0EF0119ED8902630126E5CEF0DF0C5
:101D560012000600F2A8B2EF0EF0B4EF0EF0BDEFDF
:101D66000EF0F2A2B9EF0EF0BBEF0EF0BDEF0EF0E3
:101D760032EC12F0F0A6C2EF0EF0C4EF0EF0CDEF8B
:101D86000EF0F0A0C9EF0EF0CBEF0EF0CDEF0EF097
:101D960030EC12F0F0A8D2EF0EF0D4EF0EF0DDEF3B
:101DA6000EF0F0A2D9EF0EF0DBEF0EF0DDEF0EF045
:101DB6002EEC12F0F2A6E2EF0EF0E4EF0EF0F4EFE6
:101DC6000EF0F2A0E9EF0EF0EBEF0EF0F4EF0EF0EE
:101DD60081A8F0EF0EF0F2EF0EF0F4EF0EF02CEC1F
:101DE60012F0F2A6F9EF0EF0FBEF0EF00BEF0FF08C
:101DF600F2A000EF0FF002EF0FF00BEF0FF081AA49
:101E060007EF0FF009EF0FF00BEF0FF02AEC12F0CF
:101E1600F2A610EF0FF012EF0FF022EF0FF0F2A084
:101E260017EF0FF019EF0FF022EF0FF081AC1EEF56
:101E36000FF020EF0FF022EF0FF028EC12F0F2A6D1
:101E460027EF0FF029EF0FF039EF0FF0F2A02EEF8A
:101E56000FF030EF0FF039EF0FF081AE35EF0FF0E6
:101E660037EF0FF039EF0FF026EC12F09DAC3EEF96
:101E76000FF040EF0FF049EF0FF09EAC45EF0FF07B
:101E860047EF0FF049EF0FF038EC12F0F2AA4EEFE1
:101E96000FF050EF0FF059EF0FF0F2A455EF0FF0DF
:101EA60057EF0FF059EF0FF01CEC12F09DA05EEF0C
:101EB6000FF060EF0FF069EF0FF09EA065EF0FF0E7
:101EC60067EF0FF069EF0FF016EC12F09DA26EEFC0
:101ED6000FF070EF0FF079EF0FF09EA275EF0FF095
:101EE60077EF0FF079EF0FF022EC12F0A0A27EEF61
:101EF6000FF080EF0FF089EF0FF0A1A285EF0FF042
:101F060087EF0FF089EF0FF010EC12F09DA48EEF23
:101F16000FF090EF0FF099EF0FF09EA495EF0FF0F2
:101F260097EF0FF099EF0FF036EC12F0A0A09EEFAE
:101F36000FF0A0EF0FF0A9EF0FF0A1A0A5EF0FF0A3
:101F4600A7EF0FF0A9EF0FF034EC12F07D9211001D
:101F5600096E0950D8B4B2EF0FF0B4EF0FF0D6EF18
:101F66000FF004BEBBEF0FF0B9EF0FF0D6EF0FF096
:101F760001C005F002C006F003C007F004C008F077
:101F8600051E061E071E081E052A000E062207222B
:101F9600082205C00BF006C00CF007C00DF008C003
:101FA6000EF0DEEF0FF001C00BF002C00CF003C024
:101FB6000DF004C00EF00150021003100410D8A456
:101FC600E7EF0FF0E9EF0FF0F3EF0FF0000E016E01
:101FD600000E026E000E036E000E046E84EF10F00B
:101FE600960E0A6EFDEF0FF00A2AD8900E320D32C9
:101FF6000C320B32000E0B14056E000E0C14066E1E
:10200600000E0D14076EFE0E0E14086E0550061017
:1020160007100810D8A412EF10F014EF10F0F7EF25
:102026000FF022EF10F00A2A010E0B26000E0C22EA
:102036000D220E22D8900E320D320C320B32000ECB
:102046000B14056E000E0C14066E000E0D14076EB2
:10205600FF0E0E14086E0550061007100810D8A4BF
:1020660037EF10F039EF10F016EF10F041EF10F0E7
:102076000A06D8900B360C360D360E360DBE46EFD8
:1020860010F048EF10F050EF10F0020E0A604EEF1D
:1020960010F050EF10F03BEF10F00AB055EF10F0D3
:1020A60057EF10F058EF10F00D9ED8900A320AC084
:1020B60005F0066A076A086A05C008F0076A066A34
:1020C600056A05500B1206500C1207500D120850E7
:1020D6000E120950D8B472EF10F074EF10F07CEFC6
:1020E60010F004BE7BEF10F079EF10F07CEF10F0EB
:1020F6000E8E0BC001F00CC002F00DC003F00EC036
:1021060004F01200033404340A6E0A50D8A48EEF89
:1021160010F090EF10F09AEF10F0000E016E000E26
:10212600026E000E036E000E046E07EF11F001C082
:1021360005F002C006F003C007F004C008F0200E48
:10214600AAEF10F0D8900832073206320532E82E90
:10215600A5EF10F00550096E038EFF0E0116FF0E57
:102166000216FF0E0316000E0416960E0A5E0ABE2F
:10217600C1EF10F0BFEF10F0D7EF10F00A50800A51
:10218600970FD8B0C9EF10F0CBEF10F0CDEF10F0ED
:1021960090EF10F0D89004320332023201320A3E38
:1021A600CDEF10F0EFEF10F01F0E0A64DDEF10F028
:1021B600DFEF10F0E7EF10F090EF10F0D890013657
:1021C6000236033604360A060A50D8A4EDEF10F09C
:1021D600EFEF10F0E1EF10F00950D8B4F5EF10F082
:1021E600F7EF10F0FFEF10F0041E031E021E016C45
:1021F600000E02220322042201C001F002C002F0F6
:1022060003C003F004C004F0120020EE05F00150F4
:10221600D9260250DA22DFAA13EF11F015EF11F0DA
:1022260038EF11F0AC8A20EE05F00150D9260250A5
:10223600DA22DFAC21EF11F023EF11F026EF11F0D7
:102246009D8827EF11F09D9820EE05F00150D926C4
:102256000250DA22DFAE32EF11F034EF11F037EF31
:1022660011F0AC8C38EF11F0AC9C120020EE06F0A9
:102276000150D9260250DA22DFAA44EF11F046EFC8
:1022860011F069EF11F0AB8820EE06F00150D92667
:102296000250DA22DFAC52EF11F054EF11F057EF93
:1022A60011F09D8A58EF11F09D9A20EE06F001502C
:1022B600D9260250DA22DFAE63EF11F065EF11F096
:1022C60068EF11F0AB8C69EF11F0AB9C120009ECD2
:1022D60012F09E0E016E000E026E610E036EF4EC9D
:1022E60011F00B0E476E260E466E5E0EE82EFED7DA
:1022F600462EFCD7472EFAD79E0E016E000E026EB2
:10230600620E036EF4EC11F00B0E476E260E466E4F
:102316005E0EE82EFED7462EFCD7472EFAD76CEF78
:1023260011F007EF00F0B80EF66E230EF76E000EF2
:10233600F86E00EE80F010EE30F00900F5CFEEFFFB
:10234600E550E150FAE1740EF66E240EF76E000EBB
:10235600F86E0900F5CF7CF000EE48F0340EEE6A18
:10236600E806FDE17D907D9200016AEF11F0445090
:102376004510D8A4C1EF11F0C3EF11F0C5EF11F06D
:10238600DBEF11F0AB9E948E948C44C038F045C0C0
:1023960039F00BEC08F044C001F045C002F008EC3F
:1023A60011F044C001F045C002F039EC11F0AB8EDB
:1023B6001200800F810F820F830F840F890F8A0FFF
:1023C6008B0F8C0F8D0F920F930F940F950F960F07
:1023D6008025000000202000000000000000000012
:1023E600000001500210D8A4FBEF11F0FDEF11F030
:1023F600FFEF11F008EF12F0ACA204EF12F006EFB7
:1024060012F0FFEF11F003C0ADFF12009E0E446EF6
:10241600000E456EBAEC11F01200A1924950B36E4F
:1024260048C0B2FF12009E904F50CF6E4EC0CEFFF6
:102436001200F2945550D76E54C0D6FF12009E92E9
:102446006CC0CCFF1200F2901200F2901200F290D3
:102456001200F2901200F0921200F0901200F29226
:0F2466001200A19012009E9412009E9C12000181
:020000040020DA
:08000000FFFFFFFFFFFFFFFF00
:020000040030CA
:0E000000FF071F1FFF8185FF0FC00FE00F409D
:00000001FF
